:200000000C94C3000C94EB000C94EB000C94820D0C94820D0C94820D0C94050D0C94EB009D
:200020000C94EB000C94EB000C94EB000C94EB000C94EB000C94EB000C94EB000C94EB0068
:200040000C94630C0C94EB000C94D30C0C94AD0C0C94EB000C94EB000C94EB000C94EB0002
:200060000C94EB000C94EB00010000000000000082800000000000008A80000000000080DD
:2000800000800080000000808B800000000000000100008000000000818000800000008053
:2000A00009800000000000808A00000000000000880000000000000009800080000000001C
:2000C0000A000080000000008B800080000000008B00000000000080898000000000008077
:2000E0000380000000000080028000000000008080000000000000800A8000000000000071
:200100000A00008000000080818000800000008080800000000000800100008000000000D3
:20012000088000800000008000000000240027002A000000000800020100000304070000A9
:200140000000000000000000000023002600290000000000250028002B000404040404049D
:2001600004040202020202020303030303030102040810204080010204081020010204080C
:2001800010202E0EFA0D11241FBECFEFD8E0DEBFCDBF12E0A0E0B1E0ECE3FBE202C0059035
:2001A0000D92A432B107D9F723E0A4E2B2E001C01D92AA3EB207E1F710E0C2ECD0E004C02C
:2001C0002197FE010E947E13C13CD107C9F70E94FA0E0C9491150C94000090E0FC01EE5C59
:2001E000FE4F2491FC01E259FE4F3491FC01E65AFE4FE491EE23C9F0222339F0233001F137
:20020000A8F4213019F1223029F1F0E0EE0FFF1FE05BFE4FA591B4918FB7F894EC916111CC
:2002200026C030953E233C938FBF08952730A9F02830C9F0243049F7809180008F7D03C003
:20024000809180008F7780938000DFCF84B58F7784BDDBCF84B58F7DFBCF8091B0008F77C6
:200260008093B000D2CF8091B0008F7DF9CF3E2BDACFCF93DF9390E0FC01E259FE4F2491F5
:20028000865A9E4FFC0184918823D1F090E0880F991FFC01E85DFE4FA591B491FC01E05B12
:2002A000FE4FC591D49161110EC09FB7F8948C91E22FE0958E238C932881E223E8839FBF2A
:2002C000DF91CF9108958FB7F894EC91E22BEC938FBFF6CFAF92BF92CF92DF92EF92FF924D
:2002E0000F931F93CF93DF936C017B018B01040F151FEB015E01AE18BF08C017D10759F04A
:200300006991D601ED91FC910190F081E02DC6010995892B79F7C501DF91CF911F910F9183
:20032000FF90EF90DF90CF90BF90AF900895FC01538D448D252F30E0842F90E0821B930B46
:20034000541710F0CF96089501970895FC01918D828D981761F0A28DAE0FBF2FB11D5D9636
:200360008C91928D9F5F9F73928F90E008958FEF9FEF0895FC01918D828D981731F0828D51
:20038000E80FF11D858D90E008958FEF9FEF0895FC01918D228D892F90E0805C9F4F821B37
:2003A00091098F739927089584E992E00E94C80121E0892B09F420E0822F089580E090E02A
:2003C000892B29F00E94D40181110C9400000895FC01A48DA80FB92FB11DA35ABF4F2C91A7
:2003E000848D90E001968F739927848FA689B7892C93A089B1898C91837080648C93938D4C
:20040000848D981306C00288F389E02D80818F7D80830895EF92FF920F931F93CF93DF9360
:20042000EC0181E0888F9B8D8C8D98131AC0E889F989808185FF15C09FB7F894EE89FF8963
:200440006083E889F98980818370806480839FBF81E090E0DF91CF911F910F91FF90EF908E
:200460000895F62E0B8D10E00F5F1F4F0F731127E02E8C8D8E110CC00FB607FCFACFE88909
:20048000F989808185FFF5CFCE010E94E801F1CFEB8DEC0FFD2FF11DE35AFF4FF0829FB777
:2004A000F8940B8FEA89FB8980818062CFCFCF93DF93EC01888D8823B9F0AA89BB89E8898C
:2004C000F9898C9185FD03C0808186FD0DC00FB607FCF7CF8C9185FFF2CF808185FFEDCFB6
:2004E000CE010E94E801E9CFDF91CF91089584539F4FFC01808190E0089580E290E008953E
:200500002F923F924F925F926F927F928F929F92AF92BF92CF92DF92EF92FF920F931F9349
:20052000CF93DF93CDB7DEB7CC5CD1090FB6F894DEBF0FBECDBF3C0188E6482E80E0582E7E
:200540009E012F5F3F4F1901D101F301DF93CF93CA2FDB2F45E080809180A280B380C4805A
:20056000D580E680F78034E0B89600808024018090240280A0240380B0240480C024058004
:20058000D0240680E0240780F0243A9569F78D929D92AD92BD92CD92DD92ED92FD92E8591A
:2005A000F1094A95C1F6B897989788849984AA84BB84CC84DD84EE84FF84880C991CAA1CE2
:2005C000BB1CCC1CDD1CEE1CFF1C811C08A0802409A090240AA0A0240BA0B0240CA0C0247B
:2005E0000DA0D0240EA0E0240FA0F02435E000800824008201800924018202800A2402823D
:2006000003800B24038204800C24048205800D24058206800E24068207800F240782B8965B
:200620003A9529F7E05CF10988889988AA88BB88CC88DD88EE88FF88880C991CAA1CBB1C53
:20064000CC1CDD1CEE1CFF1C811C08808024098090240A80A0240B80B0240C80C0240D80E4
:20066000D0240E80E0240F80F02435E000800824008201800924018202800A240282038026
:200680000B24038204800C24048205800D24058206800E24068207800F240782B8963A958F
:2006A00029F7E05CF109888C998CAA8CBB8CCC8CDD8CEE8CFF8C880C991CAA1CBB1CCC1C9A
:2006C000DD1CEE1CFF1C811C08848024098490240A84A0240B84B0240C84C0240D84D02440
:2006E0000E84E0240F84F02435E000800824008201800924018202800A24028203800B2463
:20070000038204800C24048205800D24058206800E24068207800F240782B8963A9529F71D
:20072000E05CF10988A099A0AAA0BBA0CCA0DDA0EEA0FFA0880C991CAA1CBB1CCC1CDD1CA0
:20074000EE1CFF1C811C08888024098890240A88A0240B88B0240C88C0240D88D0240E880A
:20076000E0240F88F02435E000800824008201800924018202800A24028203800B240382EB
:2007800004800C24048205800D24058206800E24068207800F240782B8963A9529F7E05CE6
:2007A000F10988809980AA80BB80CC80DD80EE80FF80880C991CAA1CBB1CCC1CDD1CEE1C52
:2007C000FF1C811C088C8024098C90240A8CA0240B8CB0240C8CC0240D8CD0240E8CE02474
:2007E0000F8CF02435E000800824008201800924018202800A24028203800B2403820480E7
:200800000C24048205800D24058206800E24068207800F240782B8963A9529F7E85EF109E5
:2008200080809180A280B380C480D580E680F7808D929D92AD92BD92CD92DD92ED92FD9224
:200840009096808C918CA28CB38CC48CD58CE68CF78C880C991CAA1CBB1CCC1CDD1CEE1C65
:20086000FF1C811C880C991CAA1CBB1CCC1CDD1CEE1CFF1C811C880C991CAA1CBB1CCC1C69
:20088000DD1CEE1CFF1C811C880C991CAA1CBB1CCC1CDD1CEE1CFF1C811CDD92ED92FD9297
:2008A0008D929D92AD92BD92CD92909680849184A284B384C484D584E684F784880C991C92
:2008C000AA1CBB1CCC1CDD1CEE1CFF1C811C8D929D92AD92BD92CD92DD92ED92FD929096FA
:2008E00080A091A0A2A0B3A0C4A0D5A0E6A0F7A0880C991CAA1CBB1CCC1CDD1CEE1CFF1C30
:20090000811C880C991CAA1CBB1CCC1CDD1CEE1CFF1C811C880C991CAA1CBB1CCC1CDD1CEA
:20092000EE1CFF1C811CDD92ED92FD928D929D92AD92BD92CD92909680889188A288B38891
:20094000C488D588E688F78880FAF794E794D794C794B794A79497948794F7F880FAF794FB
:20096000E794D794C794B794A79497948794F7F88D929D92AD92BD92CD92DD92ED92FD92C3
:20098000A05AB109B89680849184A284B384C484D584E684F784880C991CAA1CBB1CCC1C8B
:2009A000DD1CEE1CFF1C811C880C991CAA1CBB1CCC1CDD1CEE1CFF1C811C880C991CAA1CE4
:2009C000BB1CCC1CDD1CEE1CFF1C811C880C991CAA1CBB1CCC1CDD1CEE1CFF1C811CBD92C5
:2009E000CD92DD92ED92FD928D929D92AD92909680A091A0A2A0B3A0C4A0D5A0E6A0F7A08C
:200A0000880C991CAA1CBB1CCC1CDD1CEE1CFF1C811C880C991CAA1CBB1CCC1CDD1CEE1C7C
:200A2000FF1C811C880C991CAA1CBB1CCC1CDD1CEE1CFF1C811C880C991CAA1CBB1CCC1CA7
:200A4000DD1CEE1CFF1C811CED92FD928D929D92AD92BD92CD92DD92909680889188A288B2
:200A6000B388C488D588E688F78880FAF794E794D794C794B794A79497948794F7F880FA2A
:200A8000F794E794D794C794B794A79497948794F7F8FD928D929D92AD92BD92CD92DD9296
:200AA000ED92909680809180A280B380C480D580E680F780880C991CAA1CBB1CCC1CDD1CEE
:200AC000EE1CFF1C811C880C991CAA1CBB1CCC1CDD1CEE1CFF1C811C880C991CAA1CBB1CE5
:200AE000CC1CDD1CEE1CFF1C811C880C991CAA1CBB1CCC1CDD1CEE1CFF1C811CCD92DD92FC
:200B0000ED92FD928D929D92AD92BD929096808C918CA28CB38CC48CD58CE68CF78C80FA0F
:200B2000F794E794D794C794B794A79497948794F7F89D92AD92BD92CD92DD92ED92FD9295
:200B40008D92A05AB109B89680889188A288B388C488D588E688F788880C991CAA1CBB1C72
:200B6000CC1CDD1CEE1CFF1C811C880C991CAA1CBB1CCC1CDD1CEE1CFF1C811C880C991C00
:200B8000AA1CBB1CCC1CDD1CEE1CFF1C811CBD92CD92DD92ED92FD928D929D92AD92909637
:200BA00080809180A280B380C480D580E680F780880C991CAA1CBB1CCC1CDD1CEE1CFF1C6D
:200BC000811C880C991CAA1CBB1CCC1CDD1CEE1CFF1C811C880C991CAA1CBB1CCC1CDD1C28
:200BE000EE1CFF1C811C8D929D92AD92BD92CD92DD92ED92FD929096808C918CA28CB38CBF
:200C0000C48CD58CE68CF78C880C991CAA1CBB1CCC1CDD1CEE1CFF1C811CDD92ED92FD9228
:200C20008D929D92AD92BD92CD92909680849184A284B384C484D584E684F784880C991C0E
:200C4000AA1CBB1CCC1CDD1CEE1CFF1C811C880C991CAA1CBB1CCC1CDD1CEE1CFF1C811CCB
:200C6000FD928D929D92AD92BD92CD92DD92ED92909680A091A0A2A0B3A0C4A0D5A0E6A051
:200C8000F7A080FAF794E794D794C794B794A79497948794F7F8BD92CD92DD92ED92FD9291
:200CA0008D929D92AD92A05AB109B896808C918CA28CB38CC48CD58CE68CF78C80FAF79464
:200CC000E794D794C794B794A79497948794F7F880FAF794E794D794C794B794A794979421
:200CE0008794F7F880FAF794E794D794C794B794A79497948794F7F8DD92ED92FD928D924D
:200D00009D92AD92BD92CD92909680849184A284B384C484D584E684F78480FAF794E79415
:200D2000D794C794B794A79497948794F7F880FAF794E794D794C794B794A7949794879420
:200D4000F7F880FAF794E794D794C794B794A79497948794F7F8AD92BD92CD92DD92ED92C8
:200D6000FD928D929D92909680A091A0A2A0B3A0C4A0D5A0E6A0F7A0FD928D929D92AD9278
:200D8000BD92CD92DD92ED92909680889188A288B388C488D588E688F78880FAF794E794F5
:200DA000D794C794B794A79497948794F7F8ED92FD928D929D92AD92BD92CD92DD929096D4
:200DC00080809180A280B380C480D580E680F780880C991CAA1CBB1CCC1CDD1CEE1CFF1C4B
:200DE000811CBD92CD92DD92ED92FD928D929D92AD92A05AB109B89680A091A0A2A0B3A0B6
:200E0000C4A0D5A0E6A0F7A080FAF794E794D794C794B794A79497948794F7F880FAF794D6
:200E2000E794D794C794B794A79497948794F7F8ED92FD928D929D92AD92BD92CD92DD92FE
:200E4000909680889188A288B388C488D588E688F78880FAF794E794D794C794B794A79484
:200E600097948794F7F880FAF794E794D794C794B794A79497948794F7F880FAF794E794BC
:200E8000D794C794B794A79497948794F7F88D929D92AD92BD92CD92DD92ED92FD929096F3
:200EA00080809180A280B380C480D580E680F780880C991CAA1CBB1CCC1CDD1CEE1CFF1C6A
:200EC000811C880C991CAA1CBB1CCC1CDD1CEE1CFF1C811CED92FD928D929D92AD92BD9202
:200EE000CD92DD929096808C918CA28CB38CC48CD58CE68CF78C9D92AD92BD92CD92DD9237
:200F0000ED92FD928D92909680849184A284B384C484D584E684F784880C991CAA1CBB1C9C
:200F2000CC1CDD1CEE1CFF1C811C880C991CAA1CBB1CCC1CDD1CEE1CFF1C811C8D929D9237
:200F4000AD92BD92CD92DD92ED92FD92A85CB109E05AF10945E088809884A888B88CC8A010
:200F6000D92CD094DA20D824EA2CE094EB20E924FB2CF094FC20FA241C2D109518211B2524
:200F8000082D009509210C25D082E086F08A108F00A389809984A988B98CC9A0D92CD0944A
:200FA000DA20D824EA2CE094EB20E924FB2CF094FC20FA241C2D109518211B25082D009583
:200FC00009210C25D182E186F18A118F01A38A809A84AA88BA8CCAA0D92CD094DA20D824D4
:200FE000EA2CE094EB20E924FB2CF094FC20FA241C2D109518211B25082D009509210C25DE
:20100000D282E286F28A128F02A38B809B84AB88BB8CCBA0D92CD094DA20D824EA2CE0945A
:20102000EB20E924FB2CF094FC20FA241C2D109518211B25082D009509210C25D382E38669
:20104000F38A138F03A38C809C84AC88BC8CCCA0D92CD094DA20D824EA2CE094EB20E924B6
:20106000FB2CF094FC20FA241C2D109518211B25082D009509210C25D482E486F48A148F1E
:2010800004A38D809D84AD88BD8CCDA0D92CD094DA20D824EA2CE094EB20E924FB2CF094E4
:2010A000FC20FA241C2D109518211B25082D009509210C25D582E586F58A158F05A38E80CF
:2010C0009E84AE88BE8CCEA0D92CD094DA20D824EA2CE094EB20E924FB2CF094FC20FA241A
:2010E0001C2D109518211B25082D009509210C25D682E686F68A168F06A38F809F84AF8869
:20110000BF8CCFA0D92CD094DA20D824EA2CE094EB20E924FB2CF094FC20FA241C2D109541
:2011200018211B25082D009509210C25D782E786F78A178F07A3B896A8964A9509F00BCF3C
:20114000CF91DF91F201C590D590E590F490C753DF4FC882D982EA82FB82C95CD040F2011B
:20116000349685909590A590B4909401A50160E070E080E090E000E20E946513E22FA32E79
:20118000942E852EB62EF72FC753DF4FC880D980EA80FB80C95CD04097018601EC29A12ACE
:2011A0009E28832AD3012C912E2711963C9111973A2512964C911297492513965C9113977F
:2011C00058251496EC9114976E2F6B251596EC9115977E2F7F271696EC9116978E27179634
:2011E000EC9117979E272C9311963C93119712964C93129713965C93139714966C9314975C
:2012000015967C93159716968C93169717969C93B8E04B0E511CE8E24E16E1E05E0611F062
:201220000C94A402C453DF4F0FB6F894DEBF0FBECDBFDF91CF911F910F91FF90EF90DF903F
:20124000CF90BF90AF909F908F907F906F905F904F903F902F900895EF92FF920F931F93E6
:20126000CF93DF93EC017C0188ECE80EF11CF7010081E02FE695E695E69588E0E89FF001E0
:201280001124EC0FFD1F077088E0089F8001112426E030E040E050E060E070E080E090E000
:2012A0000E946513A0812A272083218132273183228142274283238152275383248162275E
:2012C0006483258172277583268182278683878198279783FE01E653FF4F208130E0C901B5
:2012E000019797FD0796887FFE01E80FF91F878180588783CE010E948002F7011082C7538F
:20130000DF4F1882DF91CF911F910F91FF90EF900895AF92BF92CF92DF92EF92FF920F9322
:201320001F93CF93DF93EC018B017A01FC01E753FF4F10826C0188ECC80ED11C5E01AAEC83
:20134000AA0EB11CE114F10489F1D601EC91D5018C918E1B8E151F0411F008F08E2DEC0F3F
:20136000FD2FF11D502FB801962F951B981758F49191DB014D91BD019F01215031099427EB
:20138000D9019C93F1CFF6012081280F208390E0E81AF90A080F191FD5018C912813D2CF7F
:2013A000CE010E948002F6011082CCCFDF91CF911F910F91FF90EF90DF90CF90BF90AF908C
:2013C000089502960C948909680F791FFC011082019668177907D1F708952EE031E0FC01F1
:2013E00021933193CF016AEC70E00C94E4096AEC70E002960C94E4092091310330913203CC
:201400002817390771F49091690280916A02981741F0E0916902F0E0EC5DFD4F808190E04D
:2014200008958FEF9FEF08950895EF92FF920F931F93CF93DF93DC015C96ED90FC905D97C3
:20144000E114F10479F481E090E013969C938E93129790E080E0DF91CF911F910F91FF9043
:20146000EF9008955196ED91FC91529750968C915097982F90950FB75E962C915E97122FF2
:20148000127021FD6095F8942081112319F1282B2083E7012197F1F728E0462F50E0308170
:2014A00060FF1AC0382B3083E7012197F1F7BA0175956795215089F7112381F08081892351
:2014C00080830FBF5C968D919C910197F1F781E090E0C1CF2923DCCF3923E5CF9081892B51
:2014E000EFCF20913103309132032817390761F480916A022091690290E0805C9F4F821B0F
:2015000091098F739927089590E080E00895209131033091320328173907B9F490916902D2
:2015200080916A02981789F0E0916902F0E0EC5DFD4F80812091690230E02F5F3F4F2F73DA
:2015400033272093690290E008958FEF9FEF089590E080E008957F928F929F92AF92BF92FB
:20156000CF92DF92EF92FF920F931F93CF93DF93EC016B018A015C0182E0A80EB11CC50173
:201580000E942C09FE01E653FF4F10827E01EBECEE0EF11CC453DF4F0115110529F1F7017A
:2015A00090818881981728F0C5010E948002F7011082F70160817880761A7016110611F0D7
:2015C00008F0702E872C912C6A0D7B2D711DA401C6010E946B15F7018081780E7082081938
:2015E0001909C80CD91CD8CFDF91CF911F910F91FF90EF90DF90CF90BF90AF909F908F9081
:201600007F90089528ECFC0111922A95E9F7FC01E853FF4F108287539F4FFC0110820895BF
:20162000AF92BF92CF92DF92FF920F931F93CF93DF93EC015B016A01F22EFC01E653FF4F35
:20164000008110E00E94020BA601B501CE010C151D0570F00E946B15FE010C0F1D1FE0172C
:20166000F10711F18191DF0111978F258C93F7CF0E948909CE010E942C09A80140525109CE
:201680006F2D70E0CE0180960E94741548EC50E0401B510B70E060E0CE01800F911F0E94F3
:2016A000741500E210E0D8CFCE01DF91CF911F910F91FF90DF90CF90BF90AF900C9480022C
:2016C0006F927F928F929F92AF92BF92CF92DF92EF92FF920F931F93CF93DF93CDB7DEB7EF
:2016E000A0970FB6F894DEBF0FBECDBF7C015B014A013901DC01ED91FC910484F585E02D17
:2017000040E250E0BE016F5F7F4F09956701B2E0CB0ED11C2CE5A401B501C6010E94100BCE
:2017200040E250E0BE016F5F7F4FC6010E948909D701ED91FC910484F585E02DA801B301B2
:20174000C701099560E270E0CE0101960E94E409A0960FB6F894DEBF0FBECDBFDF91CF914F
:201760001F910F91FF90EF90DF90CF90BF90AF909F908F907F906F90089526E302960C9475
:20178000100B02960C94020BFB0101900020E9F73197AF01461B570BDC01ED91FC910280B7
:2017A000F381E02D09948F929F92AF92BF920F931F93CF93DF93CDB7DEB7A1970FB6F8945D
:2017C000DEBF0FBECDBF19A2423008F44AE08E010F5D1F4F842E912CB12CA12CA501940103
:2017E0000E943413E62FB901CA01EA3004F5E05DD801EE938D01232B242B252B79F790E061
:2018000080E0109729F0BD0183E393E00E94C40BA1960FB6F894DEBF0FBECDBFDF91CF9152
:201820001F910F91BF90AF909F908F900895E95CDFCF6FE471E00C94C40B0F931F93CF9323
:20184000DF93EC010E94C40B8C01CE010E94190C800F911FDF91CF911F910F910895CF9337
:20186000DF93EC010E94ED09CE01DF91CF910C9420140E9466150F931F93CF93DF93EC01CC
:2018800088819981009759F02A813B812617370730F081E0DF91CF911F910F9108958B0199
:2018A0006F5F7F4F0E94A914009759F0998388831B830A832C813D81232B59F7FC01108263
:2018C000E8CF80E0E7CF1F920F920FB60F9211242F933F938F939F93AF93BF93809190022F
:2018E00090919102A0919202B091930230918F0223E0230F2D3758F50196A11DB11D20938B
:201900008F028093900290939102A0939202B093930280918B0290918C02A0918D02B091EE
:201920008E020196A11DB11D80938B0290938C02A0938D02B0938E02BF91AF919F918F912E
:201940003F912F910F900FBE0F901F90189526E8230F0296A11DB11DD2CF1F920F920FB674
:201960000F9211242F933F934F935F936F937F938F939F93AF93BF93EF93FF9384E992E03A
:201980000E94E801FF91EF91BF91AF919F918F917F916F915F914F913F912F910F900FBEF0
:2019A0000F901F9018951F920F920FB60F9211242F938F939F93EF93FF93E091A402F0917D
:2019C000A5028081E091AA02F091AB0282FD1BC090818091AD028F5F8F732091AE028217FF
:2019E00041F0E091AD02F0E0EC56FD4F958F8093AD02FF91EF919F918F912F910F900FBEC6
:201A00000F901F9018958081F4CF1F920F920FB60F9211242F934F935F936F937F938F934E
:201A20009F93AF93BF93209184008091650290916602A0916702B0916802820F911DA11D68
:201A4000B11D8093650290936602A0936702B09368028091650290916602A0916702B0918E
:201A60006802409165025091660260916702709168022AE0880F991FAA1FBB1F2A95D1F733
:201A8000840F951FA61FB71F8093650290936602A0936702B0936802809165029091660215
:201AA000A0916702B09168024091650250916602609167027091680226E0B695A7959795E2
:201AC00087952A95D1F784279527A627B7278093650290936602A0936702B09368028091F2
:201AE00064028F5F80936402BF91AF919F918F917F916F915F914F912F910F900FBE0F908E
:201B00001F9018951F920F920FB60F9211242F933F934F935F936F937F938F939F93AF936A
:201B2000BF93EF93FF93E0913103F0913203309749F0A685B7858585968D91FF14C09C91BF
:201B40008923A1F4FF91EF91BF91AF919F918F917F916F915F914F913F912F910F900FBE78
:201B60000F901F9018959C91892361F7A389B4899C918589809589238C93868997890197EE
:201B8000F1F7608D718DA685B785558538E020E0CB010197F1F7822F90E095958795282F0F
:201BA0004C91452309F02068315091F7868D81FD209580916A0290E001968F739927309109
:201BC0006902381799F0A0916A02B0E0AC5DBD4F2C9380936A02828D938D0197F1F7A38967
:201BE000B4898C919589892B8C93ACCF868D8160868FF1CF81E491E09093340380933303DD
:201C000080913103909132038353934071F4E0914603F09147039081809148038095892368
:201C200080831092320310923103F894A89584B7877F84BF80916000886180936000109238
:201C40006000789460E470E082E593E00E94E40960E470E082E993E00C94E40910929702E1
:201C60001092960248EE53E060E070E0409398025093990260939A0270939B028FE291E035
:201C8000909395028093940285EC90E09093A1028093A00284EC90E09093A3028093A20226
:201CA00080EC90E09093A5028093A40281EC90E09093A7028093A60282EC90E09093A902B5
:201CC0008093A80286EC90E09093AB028093AA021092AD021092AE021092AF021092B0028C
:201CE0001092D2038091D303807880628F778093D3031092D4031092D5031092D6031092AD
:201D0000D70380E89EEEA6E3B0E08093D8039093D903A093DA03B093DB031092E403109293
:201D2000E503109236031092350340933703509338036093390370933A0381E491E0909373
:201D400034038093330310924A031092490310924C0310924B0310924E0310924D031092BE
:201D6000500310924F03609151036E7F6D7F609351036695617081E068278BE00E94ED0001
:201D800061E08BE00E943901E9E7F1E0E491E0934303E5E6F1E0E491F0E0EE0FFF1FE05BB5
:201DA000FE4F85919491909345038093440360E08AE00E9439018091510381FD04C061E068
:201DC0008AE00E94ED008AE080933F03E8E7F1E0E491E0934003E4E6F1E0E491F0E0EE0FA3
:201DE000FF1FEA5BFE4F8591949190934203809341030895CF93DF93CDB7DEB7C751D14086
:201E00000FB6F894DEBF0FBECDBF789484B5826084BD84B5816084BD85B5826085BD85B520
:201E2000816085BD80916E00816080936E00109281008091810082608093810080918100E1
:201E4000816080938100809180008160809380008091B10084608093B1008091B0008160FC
:201E60008093B00080917A00846080937A0080917A00826080937A0080917A00816080932A
:201E80007A0080917A00806880937A001092C100E091A402F091A50282E08083E091A002AE
:201EA000F091A1021082E091A202F091A30280E180831092AC02E091A802F091A90286E0D0
:201EC0008083E091A602F091A702808180618083E091A602F091A702808188608083E09137
:201EE000A602F091A702808180688083E091A602F091A70280818F7D808384E992E00E9450
:201F0000190C62E571E084E992E00E941D0C10924E0310924D0310924C0310924B031092F2
:201F20004A03109249038DE991E09093500380934F0390913F03963108F047C02DEB30E053
:201F400030934A03209349032BE931E030934C0320934B032CE231E030934E0320934D0304
:201F60002091680084E0983048F031E09E3008F430E081E001C0880F3A95EAF7822B8093D0
:201F800068002DE630E0983050F02BE630E09E3030F02CE630E0963110F030E020E03093E3
:201FA000470320934603292F30E0983008F0D3C081E001C0880F9A95EAF7809348038091E8
:201FC0004F03909150030197F1F780914D0390914E03892B49F1E0913103F091320383E03C
:201FE000E333F80709F1309739F0A389B4899C918589809589238C93809151038E7F8093D9
:20200000510310926A021092690283E393E09093320380933103E0914603F0914703808153
:2020200090914803892B808361E971E083E393E00E941D0C61E08DE00E94390160E08DE007
:202040000E94ED009DE5492E512C612C712C8EE0282E81E0382E6E0193E0C90ED11C83E3BA
:2020600093E00E94710A892B09F48EC1C25FDE4F19821882CE50D140C05FDE4F198218829D
:20208000C051D140CE5EDE4F19821882C251D14070E060E0CE01825F9E4F0E943B0CC25F35
:2020A000DE4F28813981CE50D140811161C02115310519F0C9010E942014C25FDE4F1982B0
:2020C0001882CE50D140CE5EDE4F19821882C251D140C05FDE4F19821882C051D14083E37C
:2020E00093E00E94710A892BD1F383E393E00E94870A8D3009F448C0CE5EDE4F088119818E
:20210000C251D1408A3009F43FC089831A820F5F1F4FB801CE01825F9E4F0E943B0C882377
:20212000F1F2C25FDE4F28813981CE50D140CE5EDE4F88819981C251D140BE016F5F7F4FE1
:20214000820F931F0E947B15CE5EDE4F19830883C251D140C4CF9E3040F42850310981E0BE
:2021600001C0880F2A95EAF728CF2E503109F7CFCE5EDE4F19821882C251D14061E571E0A9
:20218000C9010E947B15ABCFC25FDE4FA880B980CE50D140A114B10459F0CE5EDE4F088156
:2021A0001981C251D14075010115110509F0FAC0CE5EDE4F08811981C251D14067E871E0CC
:2021C0000115110509F4D2C00F33110510F00FE310E0C25FDE4F68817981CE50D140A80101
:2021E000CE0182539F4F0E948215EEECF0E0EC0FFD1FE00FF11F108261E08DE00E94ED0085
:20220000FE01E253FF4FA2E2B1E09F01285F3F4F8191882309F408C19D91891305C12E171A
:202220003F07B1F765EE71E083E393E00E941D0C8E010C5E1E4F5801F4E0AF0EB11C7801D2
:202240000E946712A30192010E94CB126F5D7F4F8F4F9F4FF70161937F01EA15FB0581F764
:202260003A822982F60188EC11928A95E9F7C553DF4F1882CB5CD040C453DF4F1882CC5CCC
:20228000D04088E8C353DF4F8883CD5CD040C6010E94020BC6010E94020B44E050E0B8013D
:2022A000C6010E94890949E150E061EA71E0C6010E94890940E250E06BE672E0CE010196D7
:2022C0000E94AB0ACE0101960E94ED096BEB71E083E393E00E94C40BF80181918F0180316C
:2022E00030F46FEC71E083E393E00E94C40BF8013197608170E090E080E040E10E94D30B61
:202300000E151F0549F783E393E00E94190C61ED71E083E393E00E94C40B0BE612E0F801D1
:2023200081918F01803130F46FEC71E083E393E00E94C40BF8013197608170E090E080E06E
:2023400040E10E94D30B8BE892E08017910739F783E393E00E94190C60E08DE00E94ED00BC
:2023600083E393E00E94190C61E971E083E393E00E941D0CC25FDE4F88819981CE50D140DE
:20238000009711F00E942014E0E0F0E0EF2B09F466CE0E94D401882309F459CE0E9400000C
:2023A00056CE74014701EFEF8E1A9E0AF7018081082E000C990B0E94BF12892B91F701502F
:2023C00011090A0D1B1DF8018081082E000C990B0E94BF12892B31F00E151F0518F00150CC
:2023E0001109F1CFA8014F5F5F4F4E195F09CE5EDE4F59834883C251D140AE14BF0420F472
:20240000B701C5010E946B15C25FDE4FE881F981CE50D140CE5EDE4F88819981C251D1401C
:20242000E80FF91F1082C4CE62E172E083E393E00E941D0C91CF8F929F92AF92BF92CF928B
:20244000DF92EF92FF92CF93DF93EC01688179818A819B81611571058105910521F464E2CB
:2024600079ED8BE597E02DE133EF41E050E00E94CB1249015A019B01AC01A7EAB1E40E9459
:20248000EA126B017C01ACEEB4EFA50194010E94F812C60ED71EE81EF91EF7FE06C081E031
:2024A000C81AD108E10880E8F80AC882D982EA82FB82C701B6019F77DF91CF91FF90EF900D
:2024C000DF90CF90BF90AF909F908F9008958F929F92AF92BF92CF92DF92EF92FF926091FC
:2024E0000001709101018091020190910301611571058105910521F464E279ED8BE597E0EF
:202500002DE133EF41E050E00E94CB1249015A019B01AC01A7EAB1E40E94EA126B017C0120
:20252000ACEEB4EFA50194010E94F812C60ED71EE81EF91EF7FE06C081E0C81AD108E108D1
:2025400080E8F80AC0920001D0920101E0920201F0920301C701B6019F77FF90EF90DF904D
:20256000CF90BF90AF909F908F90089560930001709301018093020190930301089591110E
:202580000C94C812803219F089508550C8F70895992788270895052E97FB1EF400940E94E3
:2025A000E21257FD07D00E94341307FC03D04EF40C94E21250954095309521953F4F4F4F06
:2025C0005F4F089590958095709561957F4F8F4F9F4F08950E945613A59F900DB49F900D68
:2025E000A49F800D911D11240895B7FF0C94EA120E94EA12821B930B08952F923F924F9250
:202600005F926F927F928F929F92AF92BF92CF92DF92EF92FF920F931F93CF93DF93CDB743
:20262000DEB7CA1BDB0B0FB6F894DEBF0FBECDBF09942A88398848885F846E847D848C842D
:202640009B84AA84B984C884DF80EE80FD800C811B81AA81B981CE0FD11D0FB6F894DEBF13
:202660000FBECDBFED010895A1E21A2EAA1BBB1BFD010DC0AA1FBB1FEE1FFF1FA217B30704
:20268000E407F50720F0A21BB30BE40BF50B661F771F881F991F1A9469F760957095809542
:2026A00090959B01AC01BD01CF010895A29FB001B39FC001A39F700D811D1124911DB29FEB
:2026C000700D811D1124911D0895002E083090F0982F872F762F652F542F432F322F222724
:2026E0000850F4CF220F331F441F551F661F771F881F991F0A95B2F7002D0895EE0FFF1FBE
:202700000590F491E02D09940F931F93CF93DF938230910510F482E090E0E091E803F091D2
:20272000E90330E020E0B0E0A0E0309799F42115310509F44AC0281B390B24303105D8F5E8
:202740008A819B816115710589F1FB0193838283FE0111C04081518102811381481759079C
:20276000E0F04817590799F4109761F012960C93129713961C933296CF01DF91CF911F91E5
:202780000F9108950093E8031093E903F4CF2115310551F04217530738F0A901DB019A0183
:2027A000BD01DF01F801C1CFEF01F9CF9093E9038093E803CDCFFE01E20FF31F8193919357
:2027C0002250310939832883D7CF2091E6033091E703232B41F42091060130910701309334
:2027E000E7032093E60320910401309105012115310541F42DB73EB7409108015091090197
:20280000241B350BE091E603F091E703E217F307A0F42E1B3F0B2817390778F0AC014E5F19
:202820005F4F2417350748F04E0F5F1F5093E7034093E603819391939FCFF0E0E0E09CCF36
:20284000CF93DF930097E9F0FC01329713821282A091E803B091E903ED0130E020E0109757
:20286000A1F420813181820F931F2091E6033091E7032817390709F061C0F093E703E0936F
:20288000E603DF91CF910895EA01CE17DF07E8F54A815B819E0141155105B1F7E901FB834D
:2028A000EA8349915991C40FD51FEC17FD0761F4808191810296840F951FE90199838883C1
:2028C000828193819B838A83F0E0E0E012968D919C9113970097B9F52D913C911197CD0143
:2028E0000296820F931F2091E6033091E7032817390739F6309751F51092E9031092E803E2
:20290000B093E703A093E603BCCFD383C28340815181840F951FC817D90761F44E5F5F4FFF
:2029200088819981480F591F518340838A819B81938382832115310509F0B0CFF093E90379
:20294000E093E8039ECFFD01DC01C0CF13821282D7CFB0E0A0E0EFEAF4E10C94FF128C0177
:20296000009751F4CB010E9484138C01C801CDB7DEB7E0E10C941B13FC01E60FF71F9C01D3
:2029800022503109E217F30708F49DC0D901CD91DC911197C617D70798F0C530D10530F3C1
:2029A000CE0104978617970708F3C61BD70B2297C193D1936D937C93CF010E942014D6CFE9
:2029C0005B01AC1ABD0A4C018C0E9D1EA091E803B091E903512C412CF12CE12C109731F542
:2029E0008091E6039091E7038815990509F05CC04616570608F058C080910401909105017C
:202A0000009741F48DB79EB74091080150910901841B950BE817F90708F055C0F093E703D4
:202A2000E093E603F90171836083A0CF8D919C91119712966C90129713967C901397A8159E
:202A4000B90559F56C0142E0C40ED11CCA14DB0420F1AC014A195B09DA011296159780F03B
:202A60006282738251834083D9016D937C93E114F10471F0D7011396FC93EE93129776CF33
:202A800022968C0F9D1FF90191838083F301EFCFF093E903E093E80369CF4816590608F4A6
:202AA0002C017D01D3019ACFCB010E9484137C01009749F0AE01B8010E946B15C8010E94E7
:202AC0002014870153CF10E000E050CF81E090E0F8940C949115FB01DC0102C001900D92BB
:202AE00041505040D8F70895DC0101C06D9341505040E0F70895FB01DC0101900D920020ED
:202B0000E1F70895FB01DC014150504048F001900D920020C9F701C01D9241505040E0F796
:202B2000089510E0C2ECD0E004C0FE010E947E132196C33CD107C9F7F894FFCF010000000B
:202B40000000EA03800000000000ED092F0C7D027702C10BE109AB0AF709BD0B600B6637A4
:202B60002D404A70307700000000000A026A0197015702C801A601BA0100000000150A6A6B
:202B800001A80A140A710A870AFC090D0A0057656C636F6D6520746F2074686520766175A0
:202BA0006C742E2054686973206973206E6F7420746865206D61696E20656E7472616E63B1
:202BC000652E004E6F20696E7075742E20456E7465722070617373776F72643A004A65206D
:202BE0007375697320756E652070657469746520746F727475650048657265206973207922
:202C00006F75722073616C743A200030004865726520697320796F757220686173683A2073
:202C2000003E3E20414343455353204752414E5445443A2072756E6E696E672070726F74E1
:202C400065637465642073656374696F6E003E3E204143434553532044454E494544000043
:202C6000BE016F5F7F4FC1010E942709CF55DF4F4881C15AD040B101C655DF4F8881998101
:202C8000CA5AD0400E94220DCF55DF4F4881C15AD040BE016F5F7F4FC655DF4F8881998122
:202CA000CA5AD040CA55DF4FE881F981C65AD0408E0F9F1F0E94220DC355DF4F0FB6F894BD
:202CC000DEBF0FBECDBFDF91CF911F910F91FF90EF90DF90CF90BF90AF909F908F907F9017
:202CE0006F905F904F903F902F900895F701A3E0F595E795AA95E1F7C455DF4F288139819A
:202D0000CC5AD040E20FF31FC7018770992721E030E002C0220F331F8A95E2F7C9019081D2
:202D2000982381E009F080E090E03C0155E0660C771C5A95E1F788248394912C8C0E9D1E9B
:202D4000860C971C620C731CCC24C394D12CC81AD90AE5E0CC0CDD1CEA95E1F7AA24A39436
:202D6000B12CAC0EBD1EAC0CBD1CC20CD31C82019401A301B501C6010E946F0D9501A601FF
:202D8000B401C3010E94450E31E0E31AF108C9CEEF92FF920F931F93CF93DF93CDB7DEB7D4
:202DA000A1970FB6F894DEBF0FBECDBF8C017C01E60EF71EF80181918F01803128F460E3D6
:202DC0008FEE92E00E944302F8013197408150E070E060E019A2FE01B196DB01CA018F7034
:202DE0009927AA27BB2794E076956795579547959A95D1F78A3004F5805D829341155105D5
:202E00006105710551F7309719F0CF010E94CD140E151F0579F68CEF91E00E94CD14A1960F
:202E20000FB6F894DEBF0FBECDBFDF91CF911F910F91FF90EF900895895CDFCF0E945720D4
:202E40006F927F928F929F92AF92BF92CF92DF92EF92FF920F931F93CF93DF934C013B01E7
:202E6000EA01FC01EE59FF4F9A0140E050E060E070E080E090E003E00E94D91EA080B180BD
:202E8000C280D380E480F580068117810E940F1F20833183428353836483758386839783E1
:202EA000840106591F4F80E4A82E740182E2E80EF11C209711F1F8018081BA2CB81ABC166D
:202EC0001D0611F008F0BC2ECB2CD12CA601B3018E0D9F2D911D0E945C20F80180818B0DD8
:202EE0008083CC19DD096C0C7D1C803411F7C4010E94CB02F8011082DCCFDF91CF911F914D
:202F00000F91FF90EF90DF90CF90BF90AF909F908F907F906F9008954F925F926F927F92CA
:202F20008F929F92AF92BF92CF92DF92EF92FF920F931F93CF93DF937C014B015A016C0110
:202F400082E2C80ED11CF701E659FF4F8081D601A80FB11DE701CE59DF4F883308F085C033
:202F600080E88C93808190E047E350E0481B590B019670E060E08C0D9D1D0E9465206881AE
:202F800079818A819B810E94D21E2B013C01288139814A815B816C817D818E819F8100E20F
:202FA0000E94F41EC901DA01F701E65AFF4F0B2F112722273327782F662755274427402B97
:202FC000512B622B732B092F1A2F2B2F3327002722273327402B512B622B732BBA2FA92F78
:202FE000982F882788279927BB27842B952BA62BB72B80839183A283B38334964082518217
:2030000062827382C7010E94CB02F701329661917191819191910E94D21E648F758F868F1A
:20302000978FEC15FD0599F7D701ED91FC910480F581E02DC7010995A816B90608F4C50148
:20304000AC01B601C401DF91CF911F910F91FF90EF90DF90CF90BF90AF909F908F907F9060
:203060006F905F904F900C945C2080E88C93808190E04FE350E0481B590B019670E060E01F
:203080008C0D9D1D0E946520C7010E94CB0288E3D6011D928A95E9F772CF8F929F92AF92BB
:2030A000BF92CF92DF92EF92FF920F93CF93DF93EC016B014A017901E881F9810680F78166
:2030C000E02D09955C01E881F9810084F185E02DCE010995AE14BF04C8F0A701B401C60130
:2030E0000E945C20A5014E195F09602F70E0EC0CFD1CC7010E946520F601EE15FF0541F12E
:203100008191DF01119780278C93F7CFE881F9810284F385E02DA701B401CE010995E88168
:20312000F9810480F581E02DCE0109957C01E881F9810484F585E02DAC01B601CE01099561
:20314000E881F9810084F185E02DCE010995CACFDF91CF910F91FF90EF90DF90CF90BF90E4
:20316000AF909F908F9008956F927F928F929F92AF92BF92CF92DF92EF92FF920F931F93F7
:20318000CF93DF93CDB7DEB7A0970FB6F894DEBF0FBECDBF7C014B013A0169015801DC0120
:2031A000ED91FC910484F585E02D40E250E0BE016F5F7F4F0995B7016E5D7F4F0CE59301D4
:2031C000A401C7010E944D18F701EE59FF4F208131814281538164817581868197813E5F6D
:2031E0004F4F5F4F6F4F7F4F8F4F9F4F20833183428353836483758386839783C7010E94CD
:20320000CB02D701ED91FC91028513850480F581E02DC7010995AC01BE016F5F7F4FC701A2
:20322000F8010995D701ED91FC910484F585E02DA501B601C701099560E270E0CE0101964A
:203240000E942108A0960FB6F894DEBF0FBECDBFDF91CF911F910F91FF90EF90DF90CF902A
:20326000BF90AF909F908F907F906F9008950F93CF93DF93EC019A01829606E3AB01BC015F
:20328000CE010E944D18FE01EE59FF4F208131814281538164817581868197813E5F4F4FA5
:2032A0005F4F6F4F7F4F8F4F9F4F20833183428353836483758386839783CE01DF91CF9175
:2032C0000F910C94CB02CF93DF93EC010E943B08CE01DF91CF910C94CE1F1F920F920FB6F8
:2032E0000F9211242F933F938F939F93AF93BF938091EB029091EC02A091ED02B091EE021E
:203300003091EA0223E0230F2D3758F50196A11DB11D2093EA028093EB029093EC02A09314
:20332000ED02B093EE028091E6029091E702A091E802B091E9020196A11DB11D8093E60203
:203340009093E702A093E802B093E902BF91AF919F918F913F912F910F900FBE0F901F90EC
:20336000189526E8230F0296A11DB11DD2CF1F920F920FB60F9211242F933F934F935F9346
:203380006F937F938F939F93AF93BF93EF93FF938FEE92E00E942102FF91EF91BF91AF91C9
:2033A0009F918F917F916F915F914F913F912F910F900FBE0F901F9018951F920F920FB6CF
:2033C0000F9211242F938F939F93EF93FF93E091FF02F09100038081E0910503F0910603F3
:2033E00082FD1BC09081809108038F5F8F7320910903821741F0E0910803F0E0E151FD4F05
:20340000958F80930803FF91EF919F918F912F910F900FBE0F901F9018958081F4CF1F926E
:203420000F920FB60F9211242F934F935F936F937F938F939F93AF93BF9320918400809178
:203440001B0290911C02A0911D02B0911E02820F911DA11DB11D80931B0290931C02A093F0
:203460001D02B0931E0280911B0290911C02A0911D02B0911E0240911B0250911C026091CE
:203480001D0270911E022AE0880F991FAA1FBB1F2A95D1F7840F951FA61FB71F80931B0257
:2034A00090931C02A0931D02B0931E0280911B0290911C02A0911D02B0911E0240911B020A
:2034C00050911C0260911D0270911E0226E0B695A795979587952A95D1F784279527A6272C
:2034E000B72780931B0290931C02A0931D02B0931E0280911A028F5F80931A02BF91AF91EE
:203500009F918F917F916F915F914F912F910F900FBE0F901F901895EFEEF2E0138212827C
:2035200088EE93E0A0E0B0E084839583A683B78382E491E09183808385EC90E0958784871A
:2035400084EC90E09787868780EC90E0918B808B81EC90E0938B828B82EC90E0958B848B48
:2035600086EC90E0978B868B118E128E138E148EECE0F4E010828181807880628F7781839C
:2035800010920E0410920F04109210041092110480E89EEEA6E3B0E08093120490931304E5
:2035A000A0931404B093150410921E0410921F0480E591E090932104809320040895CF9387
:2035C000DF93CDB7DEB7C553D1400FB6F894DEBF0FBECDBF789484B5826084BD84B581606E
:2035E00084BD85B5826085BD85B5816085BD80916E00816080936E00109281008091810039
:2036000082608093810080918100816080938100809180008160809380008091B100846082
:203620008093B1008091B00081608093B00080917A00846080937A0080917A0082608093E5
:203640007A0080917A00816080937A0080917A00806880937A001092C100E091FF02F091A1
:20366000000382E08083E091FB02F091FC021082E091FD02F091FE0280E180831092070362
:20368000E0910303F091040386E08083E0910103F0910203808180618083E0910103F091EC
:2036A0000203808188608083E0910103F0910203808180688083E0910103F0910203808136
:2036C0008F7D80838FE891E09093200280931F02A0902004B0902104E0E45E2E450124E225
:2036E000820E911C7E013CECE30EF11C6E018CEAC80ED11C350194E4690E711CF501828195
:203700009381AC01495F5F4F57FF02C0495F5F4F73E0559547957A95E1F7B401C7010E9405
:203720006C0A892B09F43FC0C451DF4FD982C882CC5ED0402CE630E02C0F3D1FC251DF4F47
:2037400039832883CE5ED0409501AE0144595F4FB601C7010E949F0BF501228133812F5F90
:203760003F4F41E050E0882311F050E040E0440F551FECEEF0E0EC0FFD1FE40FF51F40811E
:2037800051818501B301CE0101960E94E814F5016081660FCE0101960E94A908882341F038
:2037A0005A945110ABCF83EE91E00E94DA14FFCFF50182819381BC01695F7F4F77FF02C068
:2037C000695F7F4F33E0759567953A95E1F7A70181E292E00E944508F5016181062E000C0F
:2037E000770BAE014F5F5F4F81E492E00E944508F5018181908141E050E04C0F5D1F490FED
:20380000511D97FD5A95082E000C990BBC018F5B9D4F0E9445088CEF91E00E94CD1482EC72
:2038200091E00E94DA148FEA91E00E94DA148FE891E00E94DA148EE691E00E94DA1488E6B2
:2038400091E00E94DA142CE630E02C0F3D1F205E3F4FCC5CDE4F39832883C453D1408FEE41
:2038600092E00E940102892B09F463C28FEE92E00E94DF018D3099F3E091E5028A3009F096
:203880004CC2AE2FB0E0AF57BD4F1C92EE23B9F16FEF71E081E892E00E946C20892BC9F409
:2038A00081EB92E00E94DA1485EA92E00E94DA1488E992E00E94DA148BE892E00E94DA1441
:2038C00088E792E00E94DA1488E692E00E94DA1416C064E072E081E892E00E946C20892BDE
:2038E00089F48CE592E00E9490028BE092E00E94CD1460E470E081E492E00E94C816109247
:20390000E502ADCF45E050E06EE072E081E892E00E947520892B09F0EAC18AE291E09A83EB
:203920008983CE0101960E94CB07CE0101960E94CB0746E852E0FA0101900020E9F7AF012B
:203940004758524066E872E0CE0101960E94201740E250E0BE01645F7E4FCE0101960E94AE
:203960008C17CE0101960E943B0882E292E00E94900286E892E00E94CD148CEF91E00E945E
:20398000CD148CE192E00E94900260E270E0CE01845F9E4F0E94C816609020047090210449
:2039A00020E4222E5301F4E2AF0EB11C93012C5B3F4FCE5CDE4F39832883C253D140F3017E
:2039C00082819381AC01495F5F4F57FF02C0495F5F4F93E0559547959A95E1F7B501CE019A
:2039E00084519F4F0E946C0A892B09F46BC1C45DDE4FF982E882CC52D140C25DDE4FD98206
:203A0000C882CE52D140F3019080692DCE0184519F4F0E94A908811152C1F30102811381FC
:203A20002801F7E04F0E511C57FE04C028012EE0420E511C83E0559447948A95E1F7442D20
:203A4000BE0164517F4FC5010E943D0A813009F036C19301A601B701CE0184519F4F0E94AD
:203A60009F0B98012F5F3F4F41E050E0882311F050E040E0440F551FECE2F1E0EC0FFD1F1D
:203A8000E40FF51F408151818301CE5CDE4F68817981C253D140CE0101960E94E814692D0E
:203AA000CE0101960E94A908382E811108C180911F0290912002892B09F0F9C0642DC70158
:203AC0000E94921221E0F7012083042D9501A701BE0164517F4FCB010E949313242DA50148
:203AE000BE0164517F4FCB010E94B9129501A701BE0164517F4FCB010E949313F3016181E1
:203B0000062E000C770BAE014F5F5F4FCE0184599F4F0E944508F30182819381BC01695FBF
:203B20007F4F77FF02C0695F7F4FA3E075956795AA95E1F741E252E0C7010E944508F60146
:203B4000E40DF11D47FCFA9531971082492DBE016F5F7F4FC6010E94220D042D9501A60163
:203B6000B701C6010E949313F30122813381C901079697FD07969C01F3E035952795FA9516
:203B8000E1F7C05DDE4F39832883C053D140C05DDE4F0881C053D140CF5CDE4F1881C1537C
:203BA000D140E0E28E2E912C0032110508F44801C05DDE4F6881C053D140C7010E949212C7
:203BC000AE01445F5E4FB401C7010E94450873E0880C991C7A95E1F7F3018281938188154F
:203BE000990510F5881A990AF701E00FF11F48E050E048195909EE16FF0608F466C0C05D83
:203C0000DE4F4881C053D140B701C5010E946108813051F0C05DDE4F2881C053D140A50152
:203C2000B701C7010E946C09042D9501A601B701C6010E94100C9501AE0144515F4FB60103
:203C4000C6010E949313642DC6010E947C08F3012181022E000C330BA90163E0440F551F13
:203C60006A95E1F74817590754F1A601B9018CE690E08C0F9D1F820F931F0E94450882E03B
:203C800092E00E94900260E270E0CE0184599F4F0E94C8168FEF91E00E94900260E270E01D
:203CA000CC5CDE4F88819981C453D14026CE442DB501C7010E946C0A892B09F006CF2A9429
:203CC00021107DCE85E092E001CE829190E09C01082C02C0359527950A94E2F7322A3082A1
:203CE000382E042E01C0330C0A94EAF784CF64E172E081E892E00E946C20892B59F487E54D
:203D000092E00E94DA1488E492E00E94DA1481E492E0DCCD8BE292E0D9CDE33608F09FCDB1
:203D200091E09E0F9093E502F0E0EF57FD4F808396CD80E090E0892B09F485CD0E940D020F
:203D4000882309F480CD0E9400007DCDF894A89584B7877F84BFE0E6F0E0808188618083B2
:203D60001082789460E470E08CE893E00E94210860E470E08CEC93E00C94210897FB072E50
:203D800016F4009407D077FD09D00E94181F07FC05D03EF4909581959F4F089570956195BD
:203DA0007F4F08956927962769277827872778270895002E083090F0982F872F762F652F96
:203DC000542F432F322F22270850F4CF220F331F441F551F661F771F881F991F0A95B2F70D
:203DE000002D089597FD1094002E083098F00850232F342F452F562F672F782F892F912D1A
:203E0000F4CF1594979587957795679557954795379527950A95AAF71124002D08952A0D20
:203E20003B1D4C1D5D1D6E1D7F1D801F911F0895AA1BBB1B51E107C0AA1FBB1FA617B70782
:203E400010F0A61BB70B881F991F5A95A9F780959095BC01CD010895EE0FFF1F0590F4915A
:203E6000E02D09940F931F93CF93DF938230910510F482E090E0E0912404F091250430E0FF
:203E800020E0B0E0A0E0309799F42115310509F44AC0281B390B24303105D8F58A819B8146
:203EA0006115710589F1FB0193838283FE0111C0408151810281138148175907E0F048171D
:203EC000590799F4109761F012960C93129713961C933296CF01DF91CF911F910F91089560
:203EE0000093240410932504F4CF2115310551F04217530738F0A901DB019A01BD01DF0131
:203F0000F801C1CFEF01F9CF9093250480932404CDCFFE01E20FF31F819391932250310957
:203F200039832883D7CF2091220430912304232B41F420910201309103013093230420931C
:203F4000220420910001309101012115310541F42DB73EB74091040150910501241B350B10
:203F6000E0912204F0912304E217F307A0F42E1B3F0B2817390778F0AC014E5F5F4F2417BE
:203F8000350748F04E0F5F1F5093230440932204819391939FCFF0E0E0E09CCFCF93DF935A
:203FA0000097E9F0FC01329713821282A0912404B0912504ED0130E020E01097A1F4208104
:203FC0003181820F931F20912204309123042817390709F061C0F0932304E0932204DF91E1
:203FE000CF910895EA01CE17DF07E8F54A815B819E0141155105B1F7E901FB83EA834991E8
:204000005991C40FD51FEC17FD0761F4808191810296840F951FE901998388838281938179
:204020009B838A83F0E0E0E012968D919C9113970097B9F52D913C911197CD010296820FB9
:20404000931F20912204309123042817390739F6309751F51092250410922404B093230435
:20406000A0932204BCCFD383C28340815181840F951FC817D90761F44E5F5F4F8881998155
:20408000480F591F518340838A819B81938382832115310509F0B0CFF0932504E09324044D
:2040A0009ECFFD01DC01C0CF13821282D7CF81E090E0F8940C948320FB01DC0102C001908E
:2040C0000D9241505040D8F70895DC0101C06D9341505040E0F70895FB01DC018D910190F9
:2040E00080190110D9F3990B0895FB01DC014150504030F08D910190801919F40020B9F7CA
:20410000881B990B089511E0C4E6D1E004C0FE010E942C1F2196C536D107C9F7F894FFCF1B
:20412000000026048000421793A53187CC0219AB7351912248FE337714C85961A409B3D2CB
:20414000E7168245AC29000000003B0863191E081B08CB0720178C172A083719B4180000C4
:2041600000004302A301D001AB020102DF01F30120200001FFFFFFFFFFFFFFFFFFFFFFFFCC
:2041800000000000000000000000000001000000FFFFFFFF512563FCC2CAB9F3849E17A735
:2041A000ADFAE6BCFFFFFFFFFFFFFFFF00000000FFFFFFFF96C298D84539A1F4A033EB2DFC
:2041C000817D0377F240A463E5E6BCF847422CE1F2D1176BF551BF376840B6CBCE5E316BA7
:2041E0005733CE2B169E0F7C4AEBE78E9B7F1AFEE242E34F4B60D2273E3CCE3BF6B053CCDF
:20420000B0061D65BC86987655BDEBB3E7933AAAD835C65AAE112C11340CE10E0D0A004950
:204220004E464F005055424B4559003034005349474E200048454C500000611D221F749F1B
:204240003327A00D611D231F849F600D211D822F762F6A2F11249F5750409AF0F1F0882309
:204260004AF0EE0FFF1FBB1F661F771F881F91505040A9F79E3F510580F00C9491200C94A8
:20428000DC205F3FE4F3983ED4F3869577956795B795F795E7959F5FC1F7FE2B880F911D75
:2042A0009695879597F9089519F416F40C9497200C949A210E94C120B8F39923C9F3B6F372
:2042C0009F57550B87FF0E94A8210024A0E640EA900180585695979528F4805C660F771F40
:2042E000881F20F026173707480730F4621B730B840B202931294A2BA695179407942025B1
:2043000031254A2758F7660F771F881F20F026173707480730F4620B730B840B200D311DE2
:20432000411DA09581F7B901842F9158880F9695879508959F3F31F0915020F48795779585
:204340006795B795880F911D9695879597F9089591505040660F771F881FD2F70895991B1F
:2043600079E004C0991F961708F0961B881F7A95C9F78095089597FB072E16F4009407D0AE
:2043800077FD09D00E94DC2107FC05D03EF4909581959F4F0895709561957F4F0895EE0FFE
:2043A000FF1F0590F491E02D09940E94071FB7FF0895821B930B0895AA1BBB1B51E107C094
:2043C000AA1FBB1FA617B70710F0A61BB70B881F991F5A95A9F780959095BC01CD010895EC
:2043E000CF93DF938230910510F482E090E0E0915605F091570520E030E0C0E0D0E03097FB
:2044000011F14081518148175907C0F04817590761F482819381209719F09B838A832BC097
:20442000909357058093560526C02115310519F04217530718F49A01BE01DF01EF010280C9
:20444000F381E02DDCCF2115310509F1281B390B2430310590F412968D919C911397611522
:20446000710521F0FB019383828304C09093570580935605FD01329644C0FD01E20FF31F22
:2044800081939193225031092D933C933AC02091540530915505232B41F420910301309191
:2044A0000401309355052093540520910101309102012115310541F42DB73EB74091050106
:2044C00050910601241B350BE0915405F0915505E217F307A0F42E1B3F0B2817390778F0CF
:2044E000AC014E5F5F4F2417350748F04E0F5F1F50935505409354058193919302C0E0E007
:20450000F0E0CF01DF91CF9108950F931F93CF93DF93009709F48CC0FC0132971382128297
:2045200000915605109157050115110581F420813181820F931F20915405309155052817F7
:20454000390779F5F0935505E093540571C0D80140E050E0AE17BF0750F412962D913C91A8
:204560001397AD012115310509F1D901F3CF9D01DA013383228360817181860F971F821756
:20458000930769F4EC0128813981260F371F2E5F3F4F318320838A819B8193838283452B25
:2045A00029F4F0935705E093560542C01396FC93EE931297ED01499159919E01240F351FF5
:2045C000E217F30771F480819181840F951F029611969C938E938281938113969C938E938A
:2045E0001297E0E0F0E0D80112968D919C911397009719F0F8018C01F6CF8D919C9198013D
:204600002E5F3F4F820F931F20915405309155052817390769F4309729F4109257051092B7
:20462000560502C0138212821093550500935405DF91CF911F910F91089581E090E0F89431
:204640000C942223F894FFCFFF000058058000020A0810000000005C01D8002501030117A5
:2046600001A30100000000860256024E023A022B022A0200000000D708D80000000000CB4E
:2046800002B5028A07AF0679062906140373796E6300FFFFFFFFFFFFFFFFFFFFFFFFFFFFA7
:2046A000FFFFFFFFFFFFFFFFFFFFFFFFFFFFFFFFFFFFFFFFFFFFFFFFFFFFFFFFFFFFFFFF1A
:2046C000FFFFFFFFFFFFFFFFFFFFFFFFFFFFFFFFFFFFFFFFFFFFFFFFFFFFFFFFFFFFFFFFFA
:2046E000FFFFFFFFFFFFFFFFFFFFFFFFFFFFFFFFFFFFFFFFFFFFFFFFFFFFFFFFFFFFFFFFDA
:20470000FFFFFFFFFFFFFFFFFFFFFFFFFFFFFFFFFFFFFFFFFFFFFFFFFFFFFFFFFFFFFFFFB9
:207E0000112484B714BE81FFF0D085E08093810082E08093C00088E18093C10086E08093FC
:207E2000C20080E18093C4008EE0C9D0259A86E020E33CEF91E0309385002093840096BBAD
:207E4000B09BFECF1D9AA8958150A9F7CC24DD2488248394B5E0AB2EA1E19A2EF3E0BF2E79
:207E6000A2D0813461F49FD0082FAFD0023811F0013811F484E001C083E08DD089C0823404
:207E800011F484E103C0853419F485E0A6D080C0853579F488D0E82EFF2485D0082F10E0A0
:207EA000102F00270E291F29000F111F8ED068016FC0863521F484E090D080E0DECF84364D
:207EC00009F040C070D06FD0082F6DD080E0C81680E7D80618F4F601B7BEE895C0E0D1E0ED
:207EE00062D089930C17E1F7F0E0CF16F0E7DF0618F0F601B7BEE89568D007B600FCFDCF1A
:207F0000A601A0E0B1E02C9130E011968C91119790E0982F8827822B932B1296FA010C016F
:207F200087BEE89511244E5F5F4FF1E0A038BF0751F7F601A7BEE89507B600FCFDCF97BE85
:207F4000E89526C08437B1F42ED02DD0F82E2BD03CD0F601EF2C8F010F5F1F4F84911BD0B8
:207F6000EA94F801C1F70894C11CD11CFA94CF0CD11C0EC0853739F428D08EE10CD085E9AE
:207F80000AD08FE07ACF813511F488E018D01DD080E101D065CF982F8091C00085FFFCCF0A
:207FA0009093C60008958091C00087FFFCCF8091C00084FD01C0A8958091C6000895E0E68F
:207FC000F0E098E1908380830895EDDF803219F088E0F5DFFFCF84E1DECF1F93182FE3DF47
:207FE0001150E9F7F2DF1F91089580E0E8DFEE27FF270994FFFFFFFFFFFFFFFFFFFF040425
:00000001FF
